{
  "contractName": "MyNFT",
  "abi": [
    {
      "inputs": [
        {
          "internalType": "string",
          "name": "name",
          "type": "string"
        },
        {
          "internalType": "string",
          "name": "symbol",
          "type": "string"
        }
      ],
      "stateMutability": "nonpayable",
      "type": "constructor"
    },
    {
      "anonymous": false,
      "inputs": [
        {
          "indexed": true,
          "internalType": "address",
          "name": "owner",
          "type": "address"
        },
        {
          "indexed": true,
          "internalType": "address",
          "name": "approved",
          "type": "address"
        },
        {
          "indexed": true,
          "internalType": "uint256",
          "name": "tokenId",
          "type": "uint256"
        }
      ],
      "name": "Approval",
      "type": "event"
    },
    {
      "anonymous": false,
      "inputs": [
        {
          "indexed": true,
          "internalType": "address",
          "name": "owner",
          "type": "address"
        },
        {
          "indexed": true,
          "internalType": "address",
          "name": "operator",
          "type": "address"
        },
        {
          "indexed": false,
          "internalType": "bool",
          "name": "approved",
          "type": "bool"
        }
      ],
      "name": "ApprovalForAll",
      "type": "event"
    },
    {
      "anonymous": false,
      "inputs": [
        {
          "indexed": true,
          "internalType": "address",
          "name": "from",
          "type": "address"
        },
        {
          "indexed": true,
          "internalType": "address",
          "name": "to",
          "type": "address"
        },
        {
          "indexed": true,
          "internalType": "uint256",
          "name": "tokenId",
          "type": "uint256"
        }
      ],
      "name": "Transfer",
      "type": "event"
    },
    {
      "inputs": [
        {
          "internalType": "address",
          "name": "to",
          "type": "address"
        },
        {
          "internalType": "uint256",
          "name": "tokenId",
          "type": "uint256"
        }
      ],
      "name": "approve",
      "outputs": [],
      "stateMutability": "nonpayable",
      "type": "function"
    },
    {
      "inputs": [
        {
          "internalType": "address",
          "name": "owner",
          "type": "address"
        }
      ],
      "name": "balanceOf",
      "outputs": [
        {
          "internalType": "uint256",
          "name": "",
          "type": "uint256"
        }
      ],
      "stateMutability": "view",
      "type": "function"
    },
    {
      "inputs": [
        {
          "internalType": "uint256",
          "name": "tokenId",
          "type": "uint256"
        }
      ],
      "name": "getApproved",
      "outputs": [
        {
          "internalType": "address",
          "name": "",
          "type": "address"
        }
      ],
      "stateMutability": "view",
      "type": "function"
    },
    {
      "inputs": [
        {
          "internalType": "address",
          "name": "owner",
          "type": "address"
        },
        {
          "internalType": "address",
          "name": "operator",
          "type": "address"
        }
      ],
      "name": "isApprovedForAll",
      "outputs": [
        {
          "internalType": "bool",
          "name": "",
          "type": "bool"
        }
      ],
      "stateMutability": "view",
      "type": "function"
    },
    {
      "inputs": [],
      "name": "name",
      "outputs": [
        {
          "internalType": "string",
          "name": "",
          "type": "string"
        }
      ],
      "stateMutability": "view",
      "type": "function"
    },
    {
      "inputs": [
        {
          "internalType": "uint256",
          "name": "tokenId",
          "type": "uint256"
        }
      ],
      "name": "ownerOf",
      "outputs": [
        {
          "internalType": "address",
          "name": "",
          "type": "address"
        }
      ],
      "stateMutability": "view",
      "type": "function"
    },
    {
      "inputs": [
        {
          "internalType": "address",
          "name": "from",
          "type": "address"
        },
        {
          "internalType": "address",
          "name": "to",
          "type": "address"
        },
        {
          "internalType": "uint256",
          "name": "tokenId",
          "type": "uint256"
        }
      ],
      "name": "safeTransferFrom",
      "outputs": [],
      "stateMutability": "nonpayable",
      "type": "function"
    },
    {
      "inputs": [
        {
          "internalType": "address",
          "name": "from",
          "type": "address"
        },
        {
          "internalType": "address",
          "name": "to",
          "type": "address"
        },
        {
          "internalType": "uint256",
          "name": "tokenId",
          "type": "uint256"
        },
        {
          "internalType": "bytes",
          "name": "_data",
          "type": "bytes"
        }
      ],
      "name": "safeTransferFrom",
      "outputs": [],
      "stateMutability": "nonpayable",
      "type": "function"
    },
    {
      "inputs": [
        {
          "internalType": "address",
          "name": "operator",
          "type": "address"
        },
        {
          "internalType": "bool",
          "name": "approved",
          "type": "bool"
        }
      ],
      "name": "setApprovalForAll",
      "outputs": [],
      "stateMutability": "nonpayable",
      "type": "function"
    },
    {
      "inputs": [
        {
          "internalType": "bytes4",
          "name": "interfaceId",
          "type": "bytes4"
        }
      ],
      "name": "supportsInterface",
      "outputs": [
        {
          "internalType": "bool",
          "name": "",
          "type": "bool"
        }
      ],
      "stateMutability": "view",
      "type": "function"
    },
    {
      "inputs": [],
      "name": "symbol",
      "outputs": [
        {
          "internalType": "string",
          "name": "",
          "type": "string"
        }
      ],
      "stateMutability": "view",
      "type": "function"
    },
    {
      "inputs": [
        {
          "internalType": "uint256",
          "name": "",
          "type": "uint256"
        }
      ],
      "name": "tokenName",
      "outputs": [
        {
          "internalType": "string",
          "name": "",
          "type": "string"
        }
      ],
      "stateMutability": "view",
      "type": "function"
    },
    {
      "inputs": [
        {
          "internalType": "uint256",
          "name": "tokenId",
          "type": "uint256"
        }
      ],
      "name": "tokenURI",
      "outputs": [
        {
          "internalType": "string",
          "name": "",
          "type": "string"
        }
      ],
      "stateMutability": "view",
      "type": "function"
    },
    {
      "inputs": [
        {
          "internalType": "address",
          "name": "from",
          "type": "address"
        },
        {
          "internalType": "address",
          "name": "to",
          "type": "address"
        },
        {
          "internalType": "uint256",
          "name": "tokenId",
          "type": "uint256"
        }
      ],
      "name": "transferFrom",
      "outputs": [],
      "stateMutability": "nonpayable",
      "type": "function"
    },
    {
      "inputs": [
        {
          "internalType": "uint256",
          "name": "tokenId",
          "type": "uint256"
        },
        {
          "internalType": "string",
          "name": "name",
          "type": "string"
        }
      ],
      "name": "createToken",
      "outputs": [],
      "stateMutability": "nonpayable",
      "type": "function"
    },
    {
      "inputs": [
        {
          "internalType": "uint256",
          "name": "tokenId",
          "type": "uint256"
        }
      ],
      "name": "getTokenName",
      "outputs": [
        {
          "internalType": "string",
          "name": "",
          "type": "string"
        }
      ],
      "stateMutability": "view",
      "type": "function"
    }
  ],
  "bytecode": "0x60806040523480156200001157600080fd5b5060405162002e8338038062002e838339818101604052810190620000379190620002c2565b818181600090805190602001906200005192919062000075565b5080600190805190602001906200006a92919062000075565b5050505050620003ab565b828054620000839062000376565b90600052602060002090601f016020900481019282620000a75760008555620000f3565b82601f10620000c257805160ff1916838001178555620000f3565b82800160010185558215620000f3579182015b82811115620000f2578251825591602001919060010190620000d5565b5b50905062000102919062000106565b5090565b5b808211156200012157600081600090555060010162000107565b5090565b6000604051905090565b600080fd5b600080fd5b600080fd5b600080fd5b6000601f19601f8301169050919050565b7f4e487b7100000000000000000000000000000000000000000000000000000000600052604160045260246000fd5b6200018e8262000143565b810181811067ffffffffffffffff82111715620001b057620001af62000154565b5b80604052505050565b6000620001c562000125565b9050620001d3828262000183565b919050565b600067ffffffffffffffff821115620001f657620001f562000154565b5b620002018262000143565b9050602081019050919050565b60005b838110156200022e57808201518184015260208101905062000211565b838111156200023e576000848401525b50505050565b60006200025b6200025584620001d8565b620001b9565b9050828152602081018484840111156200027a57620002796200013e565b5b620002878482856200020e565b509392505050565b600082601f830112620002a757620002a662000139565b5b8151620002b984826020860162000244565b91505092915050565b60008060408385031215620002dc57620002db6200012f565b5b600083015167ffffffffffffffff811115620002fd57620002fc62000134565b5b6200030b858286016200028f565b925050602083015167ffffffffffffffff8111156200032f576200032e62000134565b5b6200033d858286016200028f565b9150509250929050565b7f4e487b7100000000000000000000000000000000000000000000000000000000600052602260045260246000fd5b600060028204905060018216806200038f57607f821691505b602082108103620003a557620003a462000347565b5b50919050565b612ac880620003bb6000396000f3fe608060405234801561001057600080fd5b50600436106101005760003560e01c806370a0823111610097578063c87b56dd11610066578063c87b56dd146102a9578063dbe16c07146102d9578063e725f87714610309578063e985e9c51461033957610100565b806370a082311461022357806395d89b4114610253578063a22cb46514610271578063b88d4fde1461028d57610100565b80631b3efe85116100d35780631b3efe851461019f57806323b872dd146101bb57806342842e0e146101d75780636352211e146101f357610100565b806301ffc9a71461010557806306fdde0314610135578063081812fc14610153578063095ea7b314610183575b600080fd5b61011f600480360381019061011a9190611950565b610369565b60405161012c9190611998565b60405180910390f35b61013d61044b565b60405161014a9190611a4c565b60405180910390f35b61016d60048036038101906101689190611aa4565b6104dd565b60405161017a9190611b12565b60405180910390f35b61019d60048036038101906101989190611b59565b610562565b005b6101b960048036038101906101b49190611cce565b610679565b005b6101d560048036038101906101d09190611d2a565b6106af565b005b6101f160048036038101906101ec9190611d2a565b61070f565b005b61020d60048036038101906102089190611aa4565b61072f565b60405161021a9190611b12565b60405180910390f35b61023d60048036038101906102389190611d7d565b6107e0565b60405161024a9190611db9565b60405180910390f35b61025b610897565b6040516102689190611a4c565b60405180910390f35b61028b60048036038101906102869190611e00565b610929565b005b6102a760048036038101906102a29190611ee1565b61093f565b005b6102c360048036038101906102be9190611aa4565b6109a1565b6040516102d09190611a4c565b60405180910390f35b6102f360048036038101906102ee9190611aa4565b610a48565b6040516103009190611a4c565b60405180910390f35b610323600480360381019061031e9190611aa4565b610aed565b6040516103309190611a4c565b60405180910390f35b610353600480360381019061034e9190611f64565b610b8d565b6040516103609190611998565b60405180910390f35b60007f80ac58cd000000000000000000000000000000000000000000000000000000007bffffffffffffffffffffffffffffffffffffffffffffffffffffffff1916827bffffffffffffffffffffffffffffffffffffffffffffffffffffffff1916148061043457507f5b5e139f000000000000000000000000000000000000000000000000000000007bffffffffffffffffffffffffffffffffffffffffffffffffffffffff1916827bffffffffffffffffffffffffffffffffffffffffffffffffffffffff1916145b80610444575061044382610c21565b5b9050919050565b60606000805461045a90611fd3565b80601f016020809104026020016040519081016040528092919081815260200182805461048690611fd3565b80156104d35780601f106104a8576101008083540402835291602001916104d3565b820191906000526020600020905b8154815290600101906020018083116104b657829003601f168201915b5050505050905090565b60006104e882610c8b565b610527576040517f08c379a000000000000000000000000000000000000000000000000000000000815260040161051e90612076565b60405180910390fd5b6004600083815260200190815260200160002060009054906101000a900473ffffffffffffffffffffffffffffffffffffffff169050919050565b600061056d8261072f565b90508073ffffffffffffffffffffffffffffffffffffffff168373ffffffffffffffffffffffffffffffffffffffff16036105dd576040517f08c379a00000000000000000000000000000000000000000000000000000000081526004016105d490612108565b60405180910390fd5b8073ffffffffffffffffffffffffffffffffffffffff166105fc610cf7565b73ffffffffffffffffffffffffffffffffffffffff16148061062b575061062a81610625610cf7565b610b8d565b5b61066a576040517f08c379a00000000000000000000000000000000000000000000000000000000081526004016106619061219a565b60405180910390fd5b6106748383610cff565b505050565b6106833383610db8565b806006600084815260200190815260200160002090805190602001906106aa929190611841565b505050565b6106c06106ba610cf7565b82610dd6565b6106ff576040517f08c379a00000000000000000000000000000000000000000000000000000000081526004016106f69061222c565b60405180910390fd5b61070a838383610eb4565b505050565b61072a8383836040518060200160405280600081525061093f565b505050565b6000806002600084815260200190815260200160002060009054906101000a900473ffffffffffffffffffffffffffffffffffffffff169050600073ffffffffffffffffffffffffffffffffffffffff168173ffffffffffffffffffffffffffffffffffffffff16036107d7576040517f08c379a00000000000000000000000000000000000000000000000000000000081526004016107ce906122be565b60405180910390fd5b80915050919050565b60008073ffffffffffffffffffffffffffffffffffffffff168273ffffffffffffffffffffffffffffffffffffffff1603610850576040517f08c379a000000000000000000000000000000000000000000000000000000000815260040161084790612350565b60405180910390fd5b600360008373ffffffffffffffffffffffffffffffffffffffff1673ffffffffffffffffffffffffffffffffffffffff168152602001908152602001600020549050919050565b6060600180546108a690611fd3565b80601f01602080910402602001604051908101604052809291908181526020018280546108d290611fd3565b801561091f5780601f106108f45761010080835404028352916020019161091f565b820191906000526020600020905b81548152906001019060200180831161090257829003601f168201915b5050505050905090565b61093b610934610cf7565b838361111a565b5050565b61095061094a610cf7565b83610dd6565b61098f576040517f08c379a00000000000000000000000000000000000000000000000000000000081526004016109869061222c565b60405180910390fd5b61099b84848484611286565b50505050565b60606109ac82610c8b565b6109eb576040517f08c379a00000000000000000000000000000000000000000000000000000000081526004016109e2906123e2565b60405180910390fd5b60006109f56112e2565b90506000815111610a155760405180602001604052806000815250610a40565b80610a1f846112f9565b604051602001610a3092919061243e565b6040516020818303038152906040525b915050919050565b6060600660008381526020019081526020016000208054610a6890611fd3565b80601f0160208091040260200160405190810160405280929190818152602001828054610a9490611fd3565b8015610ae15780601f10610ab657610100808354040283529160200191610ae1565b820191906000526020600020905b815481529060010190602001808311610ac457829003601f168201915b50505050509050919050565b60066020528060005260406000206000915090508054610b0c90611fd3565b80601f0160208091040260200160405190810160405280929190818152602001828054610b3890611fd3565b8015610b855780601f10610b5a57610100808354040283529160200191610b85565b820191906000526020600020905b815481529060010190602001808311610b6857829003601f168201915b505050505081565b6000600560008473ffffffffffffffffffffffffffffffffffffffff1673ffffffffffffffffffffffffffffffffffffffff16815260200190815260200160002060008373ffffffffffffffffffffffffffffffffffffffff1673ffffffffffffffffffffffffffffffffffffffff16815260200190815260200160002060009054906101000a900460ff16905092915050565b60007f01ffc9a7000000000000000000000000000000000000000000000000000000007bffffffffffffffffffffffffffffffffffffffffffffffffffffffff1916827bffffffffffffffffffffffffffffffffffffffffffffffffffffffff1916149050919050565b60008073ffffffffffffffffffffffffffffffffffffffff166002600084815260200190815260200160002060009054906101000a900473ffffffffffffffffffffffffffffffffffffffff1673ffffffffffffffffffffffffffffffffffffffff1614159050919050565b600033905090565b816004600083815260200190815260200160002060006101000a81548173ffffffffffffffffffffffffffffffffffffffff021916908373ffffffffffffffffffffffffffffffffffffffff160217905550808273ffffffffffffffffffffffffffffffffffffffff16610d728361072f565b73ffffffffffffffffffffffffffffffffffffffff167f8c5be1e5ebec7d5bd14f71427d1e84f3dd0314c0f7b2291e5b200ac8c7c3b92560405160405180910390a45050565b610dd2828260405180602001604052806000815250611459565b5050565b6000610de182610c8b565b610e20576040517f08c379a0000000000000000000000000000000000000000000000000000000008152600401610e17906124d4565b60405180910390fd5b6000610e2b8361072f565b90508073ffffffffffffffffffffffffffffffffffffffff168473ffffffffffffffffffffffffffffffffffffffff161480610e6d5750610e6c8185610b8d565b5b80610eab57508373ffffffffffffffffffffffffffffffffffffffff16610e93846104dd565b73ffffffffffffffffffffffffffffffffffffffff16145b91505092915050565b8273ffffffffffffffffffffffffffffffffffffffff16610ed48261072f565b73ffffffffffffffffffffffffffffffffffffffff1614610f2a576040517f08c379a0000000000000000000000000000000000000000000000000000000008152600401610f2190612566565b60405180910390fd5b600073ffffffffffffffffffffffffffffffffffffffff168273ffffffffffffffffffffffffffffffffffffffff1603610f99576040517f08c379a0000000000000000000000000000000000000000000000000000000008152600401610f90906125f8565b60405180910390fd5b610fa48383836114b4565b610faf600082610cff565b6001600360008573ffffffffffffffffffffffffffffffffffffffff1673ffffffffffffffffffffffffffffffffffffffff1681526020019081526020016000206000828254610fff9190612647565b925050819055506001600360008473ffffffffffffffffffffffffffffffffffffffff1673ffffffffffffffffffffffffffffffffffffffff1681526020019081526020016000206000828254611056919061267b565b92505081905550816002600083815260200190815260200160002060006101000a81548173ffffffffffffffffffffffffffffffffffffffff021916908373ffffffffffffffffffffffffffffffffffffffff160217905550808273ffffffffffffffffffffffffffffffffffffffff168473ffffffffffffffffffffffffffffffffffffffff167fddf252ad1be2c89b69c2b068fc378daa952ba7f163c4a11628f55a4df523b3ef60405160405180910390a46111158383836114b9565b505050565b8173ffffffffffffffffffffffffffffffffffffffff168373ffffffffffffffffffffffffffffffffffffffff1603611188576040517f08c379a000000000000000000000000000000000000000000000000000000000815260040161117f9061271d565b60405180910390fd5b80600560008573ffffffffffffffffffffffffffffffffffffffff1673ffffffffffffffffffffffffffffffffffffffff16815260200190815260200160002060008473ffffffffffffffffffffffffffffffffffffffff1673ffffffffffffffffffffffffffffffffffffffff16815260200190815260200160002060006101000a81548160ff0219169083151502179055508173ffffffffffffffffffffffffffffffffffffffff168373ffffffffffffffffffffffffffffffffffffffff167f17307eab39ab6107e8899845ad3d59bd9653f200f220920489ca2b5937696c31836040516112799190611998565b60405180910390a3505050565b611291848484610eb4565b61129d848484846114be565b6112dc576040517f08c379a00000000000000000000000000000000000000000000000000000000081526004016112d3906127af565b60405180910390fd5b50505050565b606060405180602001604052806000815250905090565b606060008203611340576040518060400160405280600181526020017f30000000000000000000000000000000000000000000000000000000000000008152509050611454565b600082905060005b6000821461137257808061135b906127cf565b915050600a8261136b9190612846565b9150611348565b60008167ffffffffffffffff81111561138e5761138d611ba3565b5b6040519080825280601f01601f1916602001820160405280156113c05781602001600182028036833780820191505090505b5090505b6000851461144d576001826113d99190612647565b9150600a856113e89190612877565b60306113f4919061267b565b60f81b81838151811061140a576114096128a8565b5b60200101907effffffffffffffffffffffffffffffffffffffffffffffffffffffffffffff1916908160001a905350600a856114469190612846565b94506113c4565b8093505050505b919050565b6114638383611645565b61147060008484846114be565b6114af576040517f08c379a00000000000000000000000000000000000000000000000000000000081526004016114a6906127af565b60405180910390fd5b505050565b505050565b505050565b60006114df8473ffffffffffffffffffffffffffffffffffffffff1661181e565b15611638578373ffffffffffffffffffffffffffffffffffffffff1663150b7a02611508610cf7565b8786866040518563ffffffff1660e01b815260040161152a949392919061292c565b6020604051808303816000875af192505050801561156657506040513d601f19601f82011682018060405250810190611563919061298d565b60015b6115e8573d8060008114611596576040519150601f19603f3d011682016040523d82523d6000602084013e61159b565b606091505b5060008151036115e0576040517f08c379a00000000000000000000000000000000000000000000000000000000081526004016115d7906127af565b60405180910390fd5b805181602001fd5b63150b7a0260e01b7bffffffffffffffffffffffffffffffffffffffffffffffffffffffff1916817bffffffffffffffffffffffffffffffffffffffffffffffffffffffff19161491505061163d565b600190505b949350505050565b600073ffffffffffffffffffffffffffffffffffffffff168273ffffffffffffffffffffffffffffffffffffffff16036116b4576040517f08c379a00000000000000000000000000000000000000000000000000000000081526004016116ab90612a06565b60405180910390fd5b6116bd81610c8b565b156116fd576040517f08c379a00000000000000000000000000000000000000000000000000000000081526004016116f490612a72565b60405180910390fd5b611709600083836114b4565b6001600360008473ffffffffffffffffffffffffffffffffffffffff1673ffffffffffffffffffffffffffffffffffffffff1681526020019081526020016000206000828254611759919061267b565b92505081905550816002600083815260200190815260200160002060006101000a81548173ffffffffffffffffffffffffffffffffffffffff021916908373ffffffffffffffffffffffffffffffffffffffff160217905550808273ffffffffffffffffffffffffffffffffffffffff16600073ffffffffffffffffffffffffffffffffffffffff167fddf252ad1be2c89b69c2b068fc378daa952ba7f163c4a11628f55a4df523b3ef60405160405180910390a461181a600083836114b9565b5050565b6000808273ffffffffffffffffffffffffffffffffffffffff163b119050919050565b82805461184d90611fd3565b90600052602060002090601f01602090048101928261186f57600085556118b6565b82601f1061188857805160ff19168380011785556118b6565b828001600101855582156118b6579182015b828111156118b557825182559160200191906001019061189a565b5b5090506118c391906118c7565b5090565b5b808211156118e05760008160009055506001016118c8565b5090565b6000604051905090565b600080fd5b600080fd5b60007fffffffff0000000000000000000000000000000000000000000000000000000082169050919050565b61192d816118f8565b811461193857600080fd5b50565b60008135905061194a81611924565b92915050565b600060208284031215611966576119656118ee565b5b60006119748482850161193b565b91505092915050565b60008115159050919050565b6119928161197d565b82525050565b60006020820190506119ad6000830184611989565b92915050565b600081519050919050565b600082825260208201905092915050565b60005b838110156119ed5780820151818401526020810190506119d2565b838111156119fc576000848401525b50505050565b6000601f19601f8301169050919050565b6000611a1e826119b3565b611a2881856119be565b9350611a388185602086016119cf565b611a4181611a02565b840191505092915050565b60006020820190508181036000830152611a668184611a13565b905092915050565b6000819050919050565b611a8181611a6e565b8114611a8c57600080fd5b50565b600081359050611a9e81611a78565b92915050565b600060208284031215611aba57611ab96118ee565b5b6000611ac884828501611a8f565b91505092915050565b600073ffffffffffffffffffffffffffffffffffffffff82169050919050565b6000611afc82611ad1565b9050919050565b611b0c81611af1565b82525050565b6000602082019050611b276000830184611b03565b92915050565b611b3681611af1565b8114611b4157600080fd5b50565b600081359050611b5381611b2d565b92915050565b60008060408385031215611b7057611b6f6118ee565b5b6000611b7e85828601611b44565b9250506020611b8f85828601611a8f565b9150509250929050565b600080fd5b600080fd5b7f4e487b7100000000000000000000000000000000000000000000000000000000600052604160045260246000fd5b611bdb82611a02565b810181811067ffffffffffffffff82111715611bfa57611bf9611ba3565b5b80604052505050565b6000611c0d6118e4565b9050611c198282611bd2565b919050565b600067ffffffffffffffff821115611c3957611c38611ba3565b5b611c4282611a02565b9050602081019050919050565b82818337600083830152505050565b6000611c71611c6c84611c1e565b611c03565b905082815260208101848484011115611c8d57611c8c611b9e565b5b611c98848285611c4f565b509392505050565b600082601f830112611cb557611cb4611b99565b5b8135611cc5848260208601611c5e565b91505092915050565b60008060408385031215611ce557611ce46118ee565b5b6000611cf385828601611a8f565b925050602083013567ffffffffffffffff811115611d1457611d136118f3565b5b611d2085828601611ca0565b9150509250929050565b600080600060608486031215611d4357611d426118ee565b5b6000611d5186828701611b44565b9350506020611d6286828701611b44565b9250506040611d7386828701611a8f565b9150509250925092565b600060208284031215611d9357611d926118ee565b5b6000611da184828501611b44565b91505092915050565b611db381611a6e565b82525050565b6000602082019050611dce6000830184611daa565b92915050565b611ddd8161197d565b8114611de857600080fd5b50565b600081359050611dfa81611dd4565b92915050565b60008060408385031215611e1757611e166118ee565b5b6000611e2585828601611b44565b9250506020611e3685828601611deb565b9150509250929050565b600067ffffffffffffffff821115611e5b57611e5a611ba3565b5b611e6482611a02565b9050602081019050919050565b6000611e84611e7f84611e40565b611c03565b905082815260208101848484011115611ea057611e9f611b9e565b5b611eab848285611c4f565b509392505050565b600082601f830112611ec857611ec7611b99565b5b8135611ed8848260208601611e71565b91505092915050565b60008060008060808587031215611efb57611efa6118ee565b5b6000611f0987828801611b44565b9450506020611f1a87828801611b44565b9350506040611f2b87828801611a8f565b925050606085013567ffffffffffffffff811115611f4c57611f4b6118f3565b5b611f5887828801611eb3565b91505092959194509250565b60008060408385031215611f7b57611f7a6118ee565b5b6000611f8985828601611b44565b9250506020611f9a85828601611b44565b9150509250929050565b7f4e487b7100000000000000000000000000000000000000000000000000000000600052602260045260246000fd5b60006002820490506001821680611feb57607f821691505b602082108103611ffe57611ffd611fa4565b5b50919050565b7f4552433732313a20617070726f76656420717565727920666f72206e6f6e657860008201527f697374656e7420746f6b656e0000000000000000000000000000000000000000602082015250565b6000612060602c836119be565b915061206b82612004565b604082019050919050565b6000602082019050818103600083015261208f81612053565b9050919050565b7f4552433732313a20617070726f76616c20746f2063757272656e74206f776e6560008201527f7200000000000000000000000000000000000000000000000000000000000000602082015250565b60006120f26021836119be565b91506120fd82612096565b604082019050919050565b60006020820190508181036000830152612121816120e5565b9050919050565b7f4552433732313a20617070726f76652063616c6c6572206973206e6f74206f7760008201527f6e6572206e6f7220617070726f76656420666f7220616c6c0000000000000000602082015250565b60006121846038836119be565b915061218f82612128565b604082019050919050565b600060208201905081810360008301526121b381612177565b9050919050565b7f4552433732313a207472616e736665722063616c6c6572206973206e6f74206f60008201527f776e6572206e6f7220617070726f766564000000000000000000000000000000602082015250565b60006122166031836119be565b9150612221826121ba565b604082019050919050565b6000602082019050818103600083015261224581612209565b9050919050565b7f4552433732313a206f776e657220717565727920666f72206e6f6e657869737460008201527f656e7420746f6b656e0000000000000000000000000000000000000000000000602082015250565b60006122a86029836119be565b91506122b38261224c565b604082019050919050565b600060208201905081810360008301526122d78161229b565b9050919050565b7f4552433732313a2062616c616e636520717565727920666f7220746865207a6560008201527f726f206164647265737300000000000000000000000000000000000000000000602082015250565b600061233a602a836119be565b9150612345826122de565b604082019050919050565b600060208201905081810360008301526123698161232d565b9050919050565b7f4552433732314d657461646174613a2055524920717565727920666f72206e6f60008201527f6e6578697374656e7420746f6b656e0000000000000000000000000000000000602082015250565b60006123cc602f836119be565b91506123d782612370565b604082019050919050565b600060208201905081810360008301526123fb816123bf565b9050919050565b600081905092915050565b6000612418826119b3565b6124228185612402565b93506124328185602086016119cf565b80840191505092915050565b600061244a828561240d565b9150612456828461240d565b91508190509392505050565b7f4552433732313a206f70657261746f7220717565727920666f72206e6f6e657860008201527f697374656e7420746f6b656e0000000000000000000000000000000000000000602082015250565b60006124be602c836119be565b91506124c982612462565b604082019050919050565b600060208201905081810360008301526124ed816124b1565b9050919050565b7f4552433732313a207472616e736665722066726f6d20696e636f72726563742060008201527f6f776e6572000000000000000000000000000000000000000000000000000000602082015250565b60006125506025836119be565b915061255b826124f4565b604082019050919050565b6000602082019050818103600083015261257f81612543565b9050919050565b7f4552433732313a207472616e7366657220746f20746865207a65726f2061646460008201527f7265737300000000000000000000000000000000000000000000000000000000602082015250565b60006125e26024836119be565b91506125ed82612586565b604082019050919050565b60006020820190508181036000830152612611816125d5565b9050919050565b7f4e487b7100000000000000000000000000000000000000000000000000000000600052601160045260246000fd5b600061265282611a6e565b915061265d83611a6e565b9250828210156126705761266f612618565b5b828203905092915050565b600061268682611a6e565b915061269183611a6e565b9250827fffffffffffffffffffffffffffffffffffffffffffffffffffffffffffffffff038211156126c6576126c5612618565b5b828201905092915050565b7f4552433732313a20617070726f766520746f2063616c6c657200000000000000600082015250565b60006127076019836119be565b9150612712826126d1565b602082019050919050565b60006020820190508181036000830152612736816126fa565b9050919050565b7f4552433732313a207472616e7366657220746f206e6f6e20455243373231526560008201527f63656976657220696d706c656d656e7465720000000000000000000000000000602082015250565b60006127996032836119be565b91506127a48261273d565b604082019050919050565b600060208201905081810360008301526127c88161278c565b9050919050565b60006127da82611a6e565b91507fffffffffffffffffffffffffffffffffffffffffffffffffffffffffffffffff820361280c5761280b612618565b5b600182019050919050565b7f4e487b7100000000000000000000000000000000000000000000000000000000600052601260045260246000fd5b600061285182611a6e565b915061285c83611a6e565b92508261286c5761286b612817565b5b828204905092915050565b600061288282611a6e565b915061288d83611a6e565b92508261289d5761289c612817565b5b828206905092915050565b7f4e487b7100000000000000000000000000000000000000000000000000000000600052603260045260246000fd5b600081519050919050565b600082825260208201905092915050565b60006128fe826128d7565b61290881856128e2565b93506129188185602086016119cf565b61292181611a02565b840191505092915050565b60006080820190506129416000830187611b03565b61294e6020830186611b03565b61295b6040830185611daa565b818103606083015261296d81846128f3565b905095945050505050565b60008151905061298781611924565b92915050565b6000602082840312156129a3576129a26118ee565b5b60006129b184828501612978565b91505092915050565b7f4552433732313a206d696e7420746f20746865207a65726f2061646472657373600082015250565b60006129f06020836119be565b91506129fb826129ba565b602082019050919050565b60006020820190508181036000830152612a1f816129e3565b9050919050565b7f4552433732313a20746f6b656e20616c7265616479206d696e74656400000000600082015250565b6000612a5c601c836119be565b9150612a6782612a26565b602082019050919050565b60006020820190508181036000830152612a8b81612a4f565b905091905056fea26469706673582212206b54487c3bf4504bc3718e0b3bae0baa39164ac9e74218656a0ef4c6ff9dbab964736f6c634300080e0033",
  "immutableReferences": {},
  "source": "pragma solidity >=0.4.22 <0.9.0;\n\nimport \"openzeppelin-solidity/contracts/token/ERC721/ERC721.sol\";\n\ncontract MyNFT is ERC721 {\n    mapping(uint256 => string) public tokenName;\n\n    constructor(string memory name, string memory symbol)\n        ERC721(name, symbol)\n    {}\n\n    function createToken(uint256 tokenId, string memory name) external {\n        _safeMint(msg.sender, tokenId);\n        tokenName[tokenId] = name;\n    }\n\n    function getTokenName(uint256 tokenId) external view returns (string memory) {\n        return tokenName[tokenId];\n    }\n}",
  "sourcePath": "/Users/nagatadaiki/Dropbox/My Mac (MacBook Air)/Desktop///eth_truffle/contracts/mynft.sol",
  "compiler": {
    "name": "solc",
    "version": "0.8.14+commit.80d49f37.Emscripten.clang"
  },
  "schemaVersion": "3.4.7",
  "updatedAt": "2022-06-22T01:47:47.081Z",
  "devdoc": {
    "kind": "dev",
    "methods": {
      "approve(address,uint256)": {
        "details": "See {IERC721-approve}."
      },
      "balanceOf(address)": {
        "details": "See {IERC721-balanceOf}."
      },
      "getApproved(uint256)": {
        "details": "See {IERC721-getApproved}."
      },
      "isApprovedForAll(address,address)": {
        "details": "See {IERC721-isApprovedForAll}."
      },
      "name()": {
        "details": "See {IERC721Metadata-name}."
      },
      "ownerOf(uint256)": {
        "details": "See {IERC721-ownerOf}."
      },
      "safeTransferFrom(address,address,uint256)": {
        "details": "See {IERC721-safeTransferFrom}."
      },
      "safeTransferFrom(address,address,uint256,bytes)": {
        "details": "See {IERC721-safeTransferFrom}."
      },
      "setApprovalForAll(address,bool)": {
        "details": "See {IERC721-setApprovalForAll}."
      },
      "supportsInterface(bytes4)": {
        "details": "See {IERC165-supportsInterface}."
      },
      "symbol()": {
        "details": "See {IERC721Metadata-symbol}."
      },
      "tokenURI(uint256)": {
        "details": "See {IERC721Metadata-tokenURI}."
      },
      "transferFrom(address,address,uint256)": {
        "details": "See {IERC721-transferFrom}."
      }
    },
    "version": 1
  },
  "userdoc": {
    "kind": "user",
    "methods": {},
    "version": 1
  }
}